{
  "_format": "hh-sol-artifact-1",
  "contractName": "AgenticWallet",
  "sourceName": "contracts/AgenticWallet.sol",
  "abi": [
    {
      "inputs": [
        {
          "internalType": "address",
          "name": "_agent",
          "type": "address"
        }
      ],
      "stateMutability": "nonpayable",
      "type": "constructor"
    },
    {
      "anonymous": false,
      "inputs": [
        {
          "indexed": true,
          "internalType": "address",
          "name": "oldAgent",
          "type": "address"
        },
        {
          "indexed": true,
          "internalType": "address",
          "name": "newAgent",
          "type": "address"
        }
      ],
      "name": "AgentUpdated",
      "type": "event"
    },
    {
      "anonymous": false,
      "inputs": [
        {
          "indexed": true,
          "internalType": "address",
          "name": "from",
          "type": "address"
        },
        {
          "indexed": false,
          "internalType": "uint256",
          "name": "amount",
          "type": "uint256"
        },
        {
          "indexed": false,
          "internalType": "uint256",
          "name": "timestamp",
          "type": "uint256"
        }
      ],
      "name": "Deposit",
      "type": "event"
    },
    {
      "anonymous": false,
      "inputs": [
        {
          "indexed": false,
          "internalType": "uint256",
          "name": "amount",
          "type": "uint256"
        },
        {
          "indexed": false,
          "internalType": "string",
          "name": "source",
          "type": "string"
        },
        {
          "indexed": false,
          "internalType": "uint256",
          "name": "timestamp",
          "type": "uint256"
        }
      ],
      "name": "EarningRecorded",
      "type": "event"
    },
    {
      "anonymous": false,
      "inputs": [
        {
          "indexed": true,
          "internalType": "uint256",
          "name": "loopNumber",
          "type": "uint256"
        },
        {
          "indexed": false,
          "internalType": "uint256",
          "name": "earned",
          "type": "uint256"
        },
        {
          "indexed": false,
          "internalType": "uint256",
          "name": "paid",
          "type": "uint256"
        },
        {
          "indexed": false,
          "internalType": "uint256",
          "name": "reinvested",
          "type": "uint256"
        },
        {
          "indexed": false,
          "internalType": "uint256",
          "name": "timestamp",
          "type": "uint256"
        }
      ],
      "name": "LoopCompleted",
      "type": "event"
    },
    {
      "anonymous": false,
      "inputs": [
        {
          "indexed": true,
          "internalType": "address",
          "name": "to",
          "type": "address"
        },
        {
          "indexed": false,
          "internalType": "uint256",
          "name": "amount",
          "type": "uint256"
        },
        {
          "indexed": false,
          "internalType": "string",
          "name": "purpose",
          "type": "string"
        },
        {
          "indexed": false,
          "internalType": "uint256",
          "name": "timestamp",
          "type": "uint256"
        }
      ],
      "name": "PaymentExecuted",
      "type": "event"
    },
    {
      "anonymous": false,
      "inputs": [
        {
          "indexed": true,
          "internalType": "enum AgenticWallet.LoopPhase",
          "name": "phase",
          "type": "uint8"
        },
        {
          "indexed": false,
          "internalType": "uint256",
          "name": "timestamp",
          "type": "uint256"
        }
      ],
      "name": "PhaseChanged",
      "type": "event"
    },
    {
      "anonymous": false,
      "inputs": [
        {
          "indexed": true,
          "internalType": "address",
          "name": "protocol",
          "type": "address"
        },
        {
          "indexed": false,
          "internalType": "uint256",
          "name": "amount",
          "type": "uint256"
        },
        {
          "indexed": false,
          "internalType": "uint256",
          "name": "timestamp",
          "type": "uint256"
        }
      ],
      "name": "ReinvestExecuted",
      "type": "event"
    },
    {
      "anonymous": false,
      "inputs": [
        {
          "indexed": true,
          "internalType": "address",
          "name": "to",
          "type": "address"
        },
        {
          "indexed": false,
          "internalType": "uint256",
          "name": "value",
          "type": "uint256"
        },
        {
          "indexed": false,
          "internalType": "bytes",
          "name": "data",
          "type": "bytes"
        },
        {
          "indexed": false,
          "internalType": "string",
          "name": "label",
          "type": "string"
        },
        {
          "indexed": false,
          "internalType": "uint256",
          "name": "timestamp",
          "type": "uint256"
        }
      ],
      "name": "TransactionExecuted",
      "type": "event"
    },
    {
      "inputs": [],
      "name": "NAME",
      "outputs": [
        {
          "internalType": "string",
          "name": "",
          "type": "string"
        }
      ],
      "stateMutability": "view",
      "type": "function"
    },
    {
      "inputs": [],
      "name": "VERSION",
      "outputs": [
        {
          "internalType": "string",
          "name": "",
          "type": "string"
        }
      ],
      "stateMutability": "view",
      "type": "function"
    },
    {
      "inputs": [],
      "name": "agent",
      "outputs": [
        {
          "internalType": "address",
          "name": "",
          "type": "address"
        }
      ],
      "stateMutability": "view",
      "type": "function"
    },
    {
      "inputs": [
        {
          "internalType": "uint256",
          "name": "earned",
          "type": "uint256"
        },
        {
          "internalType": "uint256",
          "name": "paid",
          "type": "uint256"
        },
        {
          "internalType": "uint256",
          "name": "reinvested",
          "type": "uint256"
        }
      ],
      "name": "completeLoop",
      "outputs": [],
      "stateMutability": "nonpayable",
      "type": "function"
    },
    {
      "inputs": [],
      "name": "currentPhase",
      "outputs": [
        {
          "internalType": "enum AgenticWallet.LoopPhase",
          "name": "",
          "type": "uint8"
        }
      ],
      "stateMutability": "view",
      "type": "function"
    },
    {
      "inputs": [
        {
          "internalType": "address",
          "name": "to",
          "type": "address"
        },
        {
          "internalType": "uint256",
          "name": "value",
          "type": "uint256"
        },
        {
          "internalType": "bytes",
          "name": "data",
          "type": "bytes"
        },
        {
          "internalType": "string",
          "name": "label",
          "type": "string"
        }
      ],
      "name": "execute",
      "outputs": [
        {
          "internalType": "bytes",
          "name": "",
          "type": "bytes"
        }
      ],
      "stateMutability": "nonpayable",
      "type": "function"
    },
    {
      "inputs": [
        {
          "internalType": "address payable",
          "name": "to",
          "type": "address"
        },
        {
          "internalType": "uint256",
          "name": "amount",
          "type": "uint256"
        },
        {
          "internalType": "string",
          "name": "purpose",
          "type": "string"
        }
      ],
      "name": "executePayment",
      "outputs": [],
      "stateMutability": "nonpayable",
      "type": "function"
    },
    {
      "inputs": [
        {
          "internalType": "address",
          "name": "protocol",
          "type": "address"
        },
        {
          "internalType": "uint256",
          "name": "amount",
          "type": "uint256"
        },
        {
          "internalType": "bytes",
          "name": "data",
          "type": "bytes"
        }
      ],
      "name": "executeReinvest",
      "outputs": [],
      "stateMutability": "nonpayable",
      "type": "function"
    },
    {
      "inputs": [],
      "name": "getBalance",
      "outputs": [
        {
          "internalType": "uint256",
          "name": "",
          "type": "uint256"
        }
      ],
      "stateMutability": "view",
      "type": "function"
    },
    {
      "inputs": [],
      "name": "getStats",
      "outputs": [
        {
          "internalType": "uint256",
          "name": "_totalEarned",
          "type": "uint256"
        },
        {
          "internalType": "uint256",
          "name": "_totalPaid",
          "type": "uint256"
        },
        {
          "internalType": "uint256",
          "name": "_totalReinvested",
          "type": "uint256"
        },
        {
          "internalType": "uint256",
          "name": "_loopCount",
          "type": "uint256"
        },
        {
          "internalType": "uint256",
          "name": "_txCount",
          "type": "uint256"
        },
        {
          "internalType": "enum AgenticWallet.LoopPhase",
          "name": "_phase",
          "type": "uint8"
        },
        {
          "internalType": "uint256",
          "name": "_balance",
          "type": "uint256"
        }
      ],
      "stateMutability": "view",
      "type": "function"
    },
    {
      "inputs": [],
      "name": "getTransactionCount",
      "outputs": [
        {
          "internalType": "uint256",
          "name": "",
          "type": "uint256"
        }
      ],
      "stateMutability": "view",
      "type": "function"
    },
    {
      "inputs": [],
      "name": "loopCount",
      "outputs": [
        {
          "internalType": "uint256",
          "name": "",
          "type": "uint256"
        }
      ],
      "stateMutability": "view",
      "type": "function"
    },
    {
      "inputs": [],
      "name": "owner",
      "outputs": [
        {
          "internalType": "address",
          "name": "",
          "type": "address"
        }
      ],
      "stateMutability": "view",
      "type": "function"
    },
    {
      "inputs": [
        {
          "internalType": "uint256",
          "name": "amount",
          "type": "uint256"
        },
        {
          "internalType": "string",
          "name": "source",
          "type": "string"
        }
      ],
      "name": "recordEarning",
      "outputs": [],
      "stateMutability": "nonpayable",
      "type": "function"
    },
    {
      "inputs": [
        {
          "internalType": "address",
          "name": "_agent",
          "type": "address"
        }
      ],
      "name": "setAgent",
      "outputs": [],
      "stateMutability": "nonpayable",
      "type": "function"
    },
    {
      "inputs": [
        {
          "internalType": "enum AgenticWallet.LoopPhase",
          "name": "_phase",
          "type": "uint8"
        }
      ],
      "name": "setPhase",
      "outputs": [],
      "stateMutability": "nonpayable",
      "type": "function"
    },
    {
      "inputs": [],
      "name": "totalEarned",
      "outputs": [
        {
          "internalType": "uint256",
          "name": "",
          "type": "uint256"
        }
      ],
      "stateMutability": "view",
      "type": "function"
    },
    {
      "inputs": [],
      "name": "totalPaid",
      "outputs": [
        {
          "internalType": "uint256",
          "name": "",
          "type": "uint256"
        }
      ],
      "stateMutability": "view",
      "type": "function"
    },
    {
      "inputs": [],
      "name": "totalReinvested",
      "outputs": [
        {
          "internalType": "uint256",
          "name": "",
          "type": "uint256"
        }
      ],
      "stateMutability": "view",
      "type": "function"
    },
    {
      "inputs": [
        {
          "internalType": "uint256",
          "name": "",
          "type": "uint256"
        }
      ],
      "name": "transactions",
      "outputs": [
        {
          "internalType": "address",
          "name": "to",
          "type": "address"
        },
        {
          "internalType": "uint256",
          "name": "value",
          "type": "uint256"
        },
        {
          "internalType": "bytes",
          "name": "data",
          "type": "bytes"
        },
        {
          "internalType": "bool",
          "name": "executed",
          "type": "bool"
        },
        {
          "internalType": "uint256",
          "name": "timestamp",
          "type": "uint256"
        },
        {
          "internalType": "string",
          "name": "label",
          "type": "string"
        }
      ],
      "stateMutability": "view",
      "type": "function"
    },
    {
      "inputs": [],
      "name": "txCount",
      "outputs": [
        {
          "internalType": "uint256",
          "name": "",
          "type": "uint256"
        }
      ],
      "stateMutability": "view",
      "type": "function"
    },
    {
      "inputs": [
        {
          "internalType": "uint256",
          "name": "amount",
          "type": "uint256"
        }
      ],
      "name": "withdraw",
      "outputs": [],
      "stateMutability": "nonpayable",
      "type": "function"
    },
    {
      "stateMutability": "payable",
      "type": "receive"
    }
  ],
  "bytecode": "0x608060405234801561001057600080fd5b506040516116c23803806116c283398101604081905261002f91610092565b600080546001600160a01b031990811633178255600180546001600160a01b0385169216821790556007805460ff191690556040519091907fee7760cb405d3beb1072ae2e716857daa45a5dd52bc1383a21173199d32c7dee908290a3506100c2565b6000602082840312156100a457600080fd5b81516001600160a01b03811681146100bb57600080fd5b9392505050565b6115f1806100d16000396000f3fe6080604052600436106101395760003560e01c8063a3f4df7e116100ab578063c59d48471161006f578063c59d4847146103c5578063e372af98146103fb578063e7b0f6661461041b578063e91675b814610431578063f5ff5c7614610447578063ffa1ad741461046757600080fd5b8063a3f4df7e14610306578063aa37d6101461034f578063b185404f14610365578063bcf685ed14610385578063c03afb59146103a557600080fd5b80632e7700f0116100fd5780632e7700f01461023b5780633bf1bcdb146102505780633c540687146102705780636dfa8d99146102865780638da5cb5b1461029c5780639ace38c2146102d457600080fd5b8063055797141461017f578063055ad42e146101b557806312065fe0146101dc57806316a45eed146101f95780632e1a7d4d1461021b57600080fd5b3661017a576040805134815242602082015233917f90890809c654f11d6e72a28fa60149770a0d11ec6c92319d6ceb2bb0a4ea1a15910160405180910390a2005b600080fd5b34801561018b57600080fd5b5061019f61019a366004610fb9565b610498565b6040516101ac919061108b565b60405180910390f35b3480156101c157600080fd5b506007546101cf9060ff1681565b6040516101ac91906110dd565b3480156101e857600080fd5b50475b6040519081526020016101ac565b34801561020557600080fd5b506102196102143660046110f1565b61075d565b005b34801561022757600080fd5b5061021961023636600461114d565b6108e3565b34801561024757600080fd5b506008546101eb565b34801561025c57600080fd5b5061021961026b366004611166565b610995565b34801561027c57600080fd5b506101eb60065481565b34801561029257600080fd5b506101eb60025481565b3480156102a857600080fd5b506000546102bc906001600160a01b031681565b6040516001600160a01b0390911681526020016101ac565b3480156102e057600080fd5b506102f46102ef36600461114d565b610a42565b6040516101ac969594939291906111b2565b34801561031257600080fd5b5061019f6040518060400160405280601781526020017f4d696e645661756c74204167656e74696357616c6c657400000000000000000081525081565b34801561035b57600080fd5b506101eb60045481565b34801561037157600080fd5b506102196103803660046110f1565b610bad565b34801561039157600080fd5b506102196103a0366004611206565b610d1a565b3480156103b157600080fd5b506102196103c0366004611223565b610dcb565b3480156103d157600080fd5b5060025460035460045460055460065460075460ff16476040516101ac9796959493929190611244565b34801561040757600080fd5b50610219610416366004611286565b610e76565b34801561042757600080fd5b506101eb60035481565b34801561043d57600080fd5b506101eb60055481565b34801561045357600080fd5b506001546102bc906001600160a01b031681565b34801561047357600080fd5b5061019f604051806040016040528060058152602001640312e302e360dc1b81525081565b6000546060906001600160a01b03163314806104be57506001546001600160a01b031633145b6104e35760405162461bcd60e51b81526004016104da906112b2565b60405180910390fd5b854710156105035760405162461bcd60e51b81526004016104da906112e9565b6006805490600061051383611342565b919050555060086040518060c00160405280896001600160a01b0316815260200188815260200187878080601f0160208091040260200160405190810160405280939291908181526020018383808284376000920191909152505050908252506001602080830191909152426040808401919091528051601f88018390048302810183019091528681526060909201919087908790819084018382808284376000920182905250939094525050835460018082018655948252602091829020845160069092020180546001600160a01b0319166001600160a01b039092169190911781559083015193810193909355506040810151909190600282019061061a90826113fc565b50606082015160038201805460ff19169115159190911790556080820151600482015560a0820151600582019061065190826113fc565b505050600080886001600160a01b03168888886040516106729291906114bc565b60006040518083038185875af1925050503d80600081146106af576040519150601f19603f3d011682016040523d82523d6000602084013e6106b4565b606091505b5091509150816107065760405162461bcd60e51b815260206004820152601f60248201527f4167656e74696357616c6c65743a20657865637574696f6e206661696c65640060448201526064016104da565b886001600160a01b03167f785bfe54367173f562658ba5c6f5057f6bf6395366ed8dde33e7e711dd3efd7f898989898942604051610749969594939291906114f5565b60405180910390a298975050505050505050565b6000546001600160a01b031633148061078057506001546001600160a01b031633145b61079c5760405162461bcd60e51b81526004016104da906112b2565b824710156107bc5760405162461bcd60e51b81526004016104da90611536565b82600460008282546107ce919061157d565b9091555050600680549060006107e383611342565b91905055506000846001600160a01b03168484846040516108059291906114bc565b60006040518083038185875af1925050503d8060008114610842576040519150601f19603f3d011682016040523d82523d6000602084013e610847565b606091505b50509050806108985760405162461bcd60e51b815260206004820152601e60248201527f4167656e74696357616c6c65743a207265696e76657374206661696c6564000060448201526064016104da565b604080518581524260208201526001600160a01b038716917f2ae57748a8eb36408f78fa1e916e415a6af8915aa1406893a5a7fd39bc7ba59091015b60405180910390a25050505050565b6000546001600160a01b031633146109385760405162461bcd60e51b815260206004820152601860248201527720b3b2b73a34b1abb0b63632ba1d103737ba1037bbb732b960411b60448201526064016104da565b804710156109585760405162461bcd60e51b81526004016104da906112e9565b600080546040516001600160a01b039091169183156108fc02918491818181858888f19350505050158015610991573d6000803e3d6000fd5b5050565b6000546001600160a01b03163314806109b857506001546001600160a01b031633145b6109d45760405162461bcd60e51b81526004016104da906112b2565b82600260008282546109e6919061157d565b9091555050600680549060006109fb83611342565b91905055507f7e5a6d9ea31bbfd348389b280b164a5db666342495265ed80742284082c7cb2183838342604051610a359493929190611590565b60405180910390a1505050565b60088181548110610a5257600080fd5b60009182526020909120600690910201805460018201546002830180546001600160a01b039093169450909291610a8890611371565b80601f0160208091040260200160405190810160405280929190818152602001828054610ab490611371565b8015610b015780601f10610ad657610100808354040283529160200191610b01565b820191906000526020600020905b815481529060010190602001808311610ae457829003601f168201915b5050505060038301546004840154600585018054949560ff9093169491935090610b2a90611371565b80601f0160208091040260200160405190810160405280929190818152602001828054610b5690611371565b8015610ba35780601f10610b7857610100808354040283529160200191610ba3565b820191906000526020600020905b815481529060010190602001808311610b8657829003601f168201915b5050505050905086565b6000546001600160a01b0316331480610bd057506001546001600160a01b031633145b610bec5760405162461bcd60e51b81526004016104da906112b2565b82471015610c0c5760405162461bcd60e51b81526004016104da90611536565b8260036000828254610c1e919061157d565b909155505060068054906000610c3383611342565b91905055506000846001600160a01b03168460405160006040518083038185875af1925050503d8060008114610c85576040519150601f19603f3d011682016040523d82523d6000602084013e610c8a565b606091505b5050905080610cdb5760405162461bcd60e51b815260206004820152601d60248201527f4167656e74696357616c6c65743a207061796d656e74206661696c656400000060448201526064016104da565b846001600160a01b03167f0388abfa25bc6ffe0f7bc09eb3647e7bfb159fc71ca205f8b5ab8b16b0c7a01d858585426040516108d49493929190611590565b6000546001600160a01b03163314610d6f5760405162461bcd60e51b815260206004820152601860248201527720b3b2b73a34b1abb0b63632ba1d103737ba1037bbb732b960411b60448201526064016104da565b6001546040516001600160a01b038084169216907fee7760cb405d3beb1072ae2e716857daa45a5dd52bc1383a21173199d32c7dee90600090a3600180546001600160a01b0319166001600160a01b0392909216919091179055565b6000546001600160a01b0316331480610dee57506001546001600160a01b031633145b610e0a5760405162461bcd60e51b81526004016104da906112b2565b6007805482919060ff19166001836003811115610e2957610e296110a5565b0217905550806003811115610e4057610e406110a5565b6040514281527fe65264342b0c60a079c9c89c73855ac517088348498810186d8c8ae6c7848ba19060200160405180910390a250565b6000546001600160a01b0316331480610e9957506001546001600160a01b031633145b610eb55760405162461bcd60e51b81526004016104da906112b2565b60058054906000610ec583611342565b90915550506007805460ff1916905560055460408051858152602081018590529081018390524260608201527fac5a2a7a2bf281d135f08b626b14b00b1ddfd3f880e8b91e1821284c80ef01509060800160405180910390a260006040514281527fe65264342b0c60a079c9c89c73855ac517088348498810186d8c8ae6c7848ba19060200160405180910390a2505050565b6001600160a01b0381168114610f6d57600080fd5b50565b60008083601f840112610f8257600080fd5b50813567ffffffffffffffff811115610f9a57600080fd5b602083019150836020828501011115610fb257600080fd5b9250929050565b60008060008060008060808789031215610fd257600080fd5b8635610fdd81610f58565b955060208701359450604087013567ffffffffffffffff8082111561100157600080fd5b61100d8a838b01610f70565b9096509450606089013591508082111561102657600080fd5b5061103389828a01610f70565b979a9699509497509295939492505050565b6000815180845260005b8181101561106b5760208185018101518683018201520161104f565b506000602082860101526020601f19601f83011685010191505092915050565b60208152600061109e6020830184611045565b9392505050565b634e487b7160e01b600052602160045260246000fd5b600481106110d957634e487b7160e01b600052602160045260246000fd5b9052565b602081016110eb82846110bb565b92915050565b6000806000806060858703121561110757600080fd5b843561111281610f58565b935060208501359250604085013567ffffffffffffffff81111561113557600080fd5b61114187828801610f70565b95989497509550505050565b60006020828403121561115f57600080fd5b5035919050565b60008060006040848603121561117b57600080fd5b83359250602084013567ffffffffffffffff81111561119957600080fd5b6111a586828701610f70565b9497909650939450505050565b60018060a01b038716815285602082015260c0604082015260006111d960c0830187611045565b851515606084015284608084015282810360a08401526111f98185611045565b9998505050505050505050565b60006020828403121561121857600080fd5b813561109e81610f58565b60006020828403121561123557600080fd5b81356004811061109e57600080fd5b600060e08201905088825287602083015286604083015285606083015284608083015261127460a08301856110bb565b8260c083015298975050505050505050565b60008060006060848603121561129b57600080fd5b505081359360208301359350604090920135919050565b6020808252601d908201527f4167656e74696357616c6c65743a206e6f7420617574686f72697a6564000000604082015260600190565b60208082526023908201527f4167656e74696357616c6c65743a20696e73756666696369656e742062616c616040820152626e636560e81b606082015260800190565b634e487b7160e01b600052601160045260246000fd5b6000600182016113545761135461132c565b5060010190565b634e487b7160e01b600052604160045260246000fd5b600181811c9082168061138557607f821691505b6020821081036113a557634e487b7160e01b600052602260045260246000fd5b50919050565b601f8211156113f7576000816000526020600020601f850160051c810160208610156113d45750805b601f850160051c820191505b818110156113f3578281556001016113e0565b5050505b505050565b815167ffffffffffffffff8111156114165761141661135b565b61142a816114248454611371565b846113ab565b602080601f83116001811461145f57600084156114475750858301515b600019600386901b1c1916600185901b1785556113f3565b600085815260208120601f198616915b8281101561148e5788860151825594840194600190910190840161146f565b50858210156114ac5787850151600019600388901b60f8161c191681555b5050505050600190811b01905550565b8183823760009101908152919050565b81835281816020850137506000828201602090810191909152601f909101601f19169091010190565b86815260806020820152600061150f6080830187896114cc565b82810360408401526115228186886114cc565b915050826060830152979650505050505050565b60208082526027908201527f4167656e74696357616c6c65743a20696e73756666696369656e74204f4b422060408201526662616c616e636560c81b606082015260800190565b808201808211156110eb576110eb61132c565b8481526060602082015260006115aa6060830185876114cc565b90508260408301529594505050505056fea2646970667358221220e32fec2457061fedb2fd230ad74d38789be4a07b4cd42613024b7cc5bc96768064736f6c63430008180033",
  "linkReferences": {},
  "deployedLinkReferences": {}
}